{
  "contractName": "PatientData",
  "abi": [
    {
      "inputs": [],
      "name": "patientCount",
      "outputs": [
        {
          "internalType": "uint256",
          "name": "",
          "type": "uint256"
        }
      ],
      "stateMutability": "view",
      "type": "function",
      "constant": true
    },
    {
      "inputs": [
        {
          "internalType": "uint256",
          "name": "",
          "type": "uint256"
        }
      ],
      "name": "patients",
      "outputs": [
        {
          "internalType": "uint256",
          "name": "id",
          "type": "uint256"
        },
        {
          "components": [
            {
              "internalType": "string",
              "name": "name",
              "type": "string"
            },
            {
              "internalType": "uint256",
              "name": "age",
              "type": "uint256"
            },
            {
              "internalType": "string",
              "name": "gender",
              "type": "string"
            },
            {
              "internalType": "string",
              "name": "bloodGroup",
              "type": "string"
            }
          ],
          "internalType": "struct PatientData.BasicInfo",
          "name": "basicInfo",
          "type": "tuple"
        },
        {
          "components": [
            {
              "internalType": "string",
              "name": "condition",
              "type": "string"
            },
            {
              "internalType": "string",
              "name": "medications",
              "type": "string"
            },
            {
              "internalType": "string",
              "name": "lastCheckupDate",
              "type": "string"
            },
            {
              "internalType": "string",
              "name": "bmi",
              "type": "string"
            },
            {
              "internalType": "string",
              "name": "location",
              "type": "string"
            }
          ],
          "internalType": "struct PatientData.MedicalInfo",
          "name": "medicalInfo",
          "type": "tuple"
        },
        {
          "components": [
            {
              "internalType": "string",
              "name": "note",
              "type": "string"
            },
            {
              "internalType": "string",
              "name": "history",
              "type": "string"
            },
            {
              "internalType": "string",
              "name": "filename",
              "type": "string"
            }
          ],
          "internalType": "struct PatientData.AdditionalInfo",
          "name": "additionalInfo",
          "type": "tuple"
        }
      ],
      "stateMutability": "view",
      "type": "function",
      "constant": true
    },
    {
      "inputs": [
        {
          "internalType": "uint256",
          "name": "_id",
          "type": "uint256"
        },
        {
          "internalType": "string",
          "name": "_name",
          "type": "string"
        },
        {
          "internalType": "uint256",
          "name": "_age",
          "type": "uint256"
        },
        {
          "internalType": "string",
          "name": "_gender",
          "type": "string"
        },
        {
          "internalType": "string",
          "name": "_bloodGroup",
          "type": "string"
        }
      ],
      "name": "addBasicInfo",
      "outputs": [],
      "stateMutability": "nonpayable",
      "type": "function"
    },
    {
      "inputs": [
        {
          "internalType": "uint256",
          "name": "_id",
          "type": "uint256"
        },
        {
          "internalType": "string",
          "name": "_condition",
          "type": "string"
        },
        {
          "internalType": "string",
          "name": "_medications",
          "type": "string"
        },
        {
          "internalType": "string",
          "name": "_lastCheckupDate",
          "type": "string"
        },
        {
          "internalType": "string",
          "name": "_bmi",
          "type": "string"
        },
        {
          "internalType": "string",
          "name": "_location",
          "type": "string"
        }
      ],
      "name": "addMedicalInfo",
      "outputs": [],
      "stateMutability": "nonpayable",
      "type": "function"
    },
    {
      "inputs": [
        {
          "internalType": "uint256",
          "name": "_id",
          "type": "uint256"
        },
        {
          "internalType": "string",
          "name": "_note",
          "type": "string"
        },
        {
          "internalType": "string",
          "name": "_history",
          "type": "string"
        },
        {
          "internalType": "string",
          "name": "_filename",
          "type": "string"
        }
      ],
      "name": "addAdditionalInfo",
      "outputs": [],
      "stateMutability": "nonpayable",
      "type": "function"
    },
    {
      "inputs": [
        {
          "internalType": "uint256",
          "name": "_id",
          "type": "uint256"
        }
      ],
      "name": "getPatient",
      "outputs": [
        {
          "components": [
            {
              "internalType": "uint256",
              "name": "id",
              "type": "uint256"
            },
            {
              "components": [
                {
                  "internalType": "string",
                  "name": "name",
                  "type": "string"
                },
                {
                  "internalType": "uint256",
                  "name": "age",
                  "type": "uint256"
                },
                {
                  "internalType": "string",
                  "name": "gender",
                  "type": "string"
                },
                {
                  "internalType": "string",
                  "name": "bloodGroup",
                  "type": "string"
                }
              ],
              "internalType": "struct PatientData.BasicInfo",
              "name": "basicInfo",
              "type": "tuple"
            },
            {
              "components": [
                {
                  "internalType": "string",
                  "name": "condition",
                  "type": "string"
                },
                {
                  "internalType": "string",
                  "name": "medications",
                  "type": "string"
                },
                {
                  "internalType": "string",
                  "name": "lastCheckupDate",
                  "type": "string"
                },
                {
                  "internalType": "string",
                  "name": "bmi",
                  "type": "string"
                },
                {
                  "internalType": "string",
                  "name": "location",
                  "type": "string"
                }
              ],
              "internalType": "struct PatientData.MedicalInfo",
              "name": "medicalInfo",
              "type": "tuple"
            },
            {
              "components": [
                {
                  "internalType": "string",
                  "name": "note",
                  "type": "string"
                },
                {
                  "internalType": "string",
                  "name": "history",
                  "type": "string"
                },
                {
                  "internalType": "string",
                  "name": "filename",
                  "type": "string"
                }
              ],
              "internalType": "struct PatientData.AdditionalInfo",
              "name": "additionalInfo",
              "type": "tuple"
            }
          ],
          "internalType": "struct PatientData.Patient",
          "name": "",
          "type": "tuple"
        }
      ],
      "stateMutability": "view",
      "type": "function",
      "constant": true
    }
  ],
  "bytecode": "0x608060405234801561001057600080fd5b50611b94806100206000396000f3fe608060405234801561001057600080fd5b50600436106100625760003560e01c80636c46f5621461006757806376bb161d146100835780637d3a67961461009f57806393119a83146100cf578063a0303c4114610102578063d67271ab14610120575b600080fd5b610081600480360381019061007c91906112d9565b61013c565b005b61009d60048036038101906100989190611384565b6101d2565b005b6100b960048036038101906100b491906112b0565b6102b0565b6040516100c691906118ce565b60405180910390f35b6100e960048036038101906100e491906112b0565b610972565b6040516100f9949392919061190b565b60405180910390f35b61010a611010565b60405161011791906118f0565b60405180910390f35b61013a60048036038101906101359190611485565b611016565b005b6000806000868152602001908152602001600020905060405180606001604052808581526020018481526020018381525081600a01600082015181600001908051906020019061018d9291906110de565b5060208201518160010190805190602001906101aa9291906110de565b5060408201518160020190805190602001906101c79291906110de565b509050505050505050565b600080600088815260200190815260200160002090506040518060a001604052808781526020018681526020018581526020018481526020018381525081600501600082015181600001908051906020019061022f9291906110de565b50602082015181600101908051906020019061024c9291906110de565b5060408201518160020190805190602001906102699291906110de565b5060608201518160030190805190602001906102869291906110de565b5060808201518160040190805190602001906102a39291906110de565b5090505050505050505050565b6102b8611164565b60008083815260200190815260200160002060405180608001604052908160008201548152602001600182016040518060800160405290816000820180546102ff90611a2e565b80601f016020809104026020016040519081016040528092919081815260200182805461032b90611a2e565b80156103785780601f1061034d57610100808354040283529160200191610378565b820191906000526020600020905b81548152906001019060200180831161035b57829003601f168201915b505050505081526020016001820154815260200160028201805461039b90611a2e565b80601f01602080910402602001604051908101604052809291908181526020018280546103c790611a2e565b80156104145780601f106103e957610100808354040283529160200191610414565b820191906000526020600020905b8154815290600101906020018083116103f757829003601f168201915b5050505050815260200160038201805461042d90611a2e565b80601f016020809104026020016040519081016040528092919081815260200182805461045990611a2e565b80156104a65780601f1061047b576101008083540402835291602001916104a6565b820191906000526020600020905b81548152906001019060200180831161048957829003601f168201915b5050505050815250508152602001600582016040518060a00160405290816000820180546104d390611a2e565b80601f01602080910402602001604051908101604052809291908181526020018280546104ff90611a2e565b801561054c5780601f106105215761010080835404028352916020019161054c565b820191906000526020600020905b81548152906001019060200180831161052f57829003601f168201915b5050505050815260200160018201805461056590611a2e565b80601f016020809104026020016040519081016040528092919081815260200182805461059190611a2e565b80156105de5780601f106105b3576101008083540402835291602001916105de565b820191906000526020600020905b8154815290600101906020018083116105c157829003601f168201915b505050505081526020016002820180546105f790611a2e565b80601f016020809104026020016040519081016040528092919081815260200182805461062390611a2e565b80156106705780601f1061064557610100808354040283529160200191610670565b820191906000526020600020905b81548152906001019060200180831161065357829003601f168201915b5050505050815260200160038201805461068990611a2e565b80601f01602080910402602001604051908101604052809291908181526020018280546106b590611a2e565b80156107025780601f106106d757610100808354040283529160200191610702565b820191906000526020600020905b8154815290600101906020018083116106e557829003601f168201915b5050505050815260200160048201805461071b90611a2e565b80601f016020809104026020016040519081016040528092919081815260200182805461074790611a2e565b80156107945780601f1061076957610100808354040283529160200191610794565b820191906000526020600020905b81548152906001019060200180831161077757829003601f168201915b5050505050815250508152602001600a82016040518060600160405290816000820180546107c190611a2e565b80601f01602080910402602001604051908101604052809291908181526020018280546107ed90611a2e565b801561083a5780601f1061080f5761010080835404028352916020019161083a565b820191906000526020600020905b81548152906001019060200180831161081d57829003601f168201915b5050505050815260200160018201805461085390611a2e565b80601f016020809104026020016040519081016040528092919081815260200182805461087f90611a2e565b80156108cc5780601f106108a1576101008083540402835291602001916108cc565b820191906000526020600020905b8154815290600101906020018083116108af57829003601f168201915b505050505081526020016002820180546108e590611a2e565b80601f016020809104026020016040519081016040528092919081815260200182805461091190611a2e565b801561095e5780601f106109335761010080835404028352916020019161095e565b820191906000526020600020905b81548152906001019060200180831161094157829003601f168201915b505050505081525050815250509050919050565b6000602052806000526040600020600091509050806000015490806001016040518060800160405290816000820180546109ab90611a2e565b80601f01602080910402602001604051908101604052809291908181526020018280546109d790611a2e565b8015610a245780601f106109f957610100808354040283529160200191610a24565b820191906000526020600020905b815481529060010190602001808311610a0757829003601f168201915b5050505050815260200160018201548152602001600282018054610a4790611a2e565b80601f0160208091040260200160405190810160405280929190818152602001828054610a7390611a2e565b8015610ac05780601f10610a9557610100808354040283529160200191610ac0565b820191906000526020600020905b815481529060010190602001808311610aa357829003601f168201915b50505050508152602001600382018054610ad990611a2e565b80601f0160208091040260200160405190810160405280929190818152602001828054610b0590611a2e565b8015610b525780601f10610b2757610100808354040283529160200191610b52565b820191906000526020600020905b815481529060010190602001808311610b3557829003601f168201915b50505050508152505090806005016040518060a0016040529081600082018054610b7b90611a2e565b80601f0160208091040260200160405190810160405280929190818152602001828054610ba790611a2e565b8015610bf45780601f10610bc957610100808354040283529160200191610bf4565b820191906000526020600020905b815481529060010190602001808311610bd757829003601f168201915b50505050508152602001600182018054610c0d90611a2e565b80601f0160208091040260200160405190810160405280929190818152602001828054610c3990611a2e565b8015610c865780601f10610c5b57610100808354040283529160200191610c86565b820191906000526020600020905b815481529060010190602001808311610c6957829003601f168201915b50505050508152602001600282018054610c9f90611a2e565b80601f0160208091040260200160405190810160405280929190818152602001828054610ccb90611a2e565b8015610d185780601f10610ced57610100808354040283529160200191610d18565b820191906000526020600020905b815481529060010190602001808311610cfb57829003601f168201915b50505050508152602001600382018054610d3190611a2e565b80601f0160208091040260200160405190810160405280929190818152602001828054610d5d90611a2e565b8015610daa5780601f10610d7f57610100808354040283529160200191610daa565b820191906000526020600020905b815481529060010190602001808311610d8d57829003601f168201915b50505050508152602001600482018054610dc390611a2e565b80601f0160208091040260200160405190810160405280929190818152602001828054610def90611a2e565b8015610e3c5780601f10610e1157610100808354040283529160200191610e3c565b820191906000526020600020905b815481529060010190602001808311610e1f57829003601f168201915b5050505050815250509080600a01604051806060016040529081600082018054610e6590611a2e565b80601f0160208091040260200160405190810160405280929190818152602001828054610e9190611a2e565b8015610ede5780601f10610eb357610100808354040283529160200191610ede565b820191906000526020600020905b815481529060010190602001808311610ec157829003601f168201915b50505050508152602001600182018054610ef790611a2e565b80601f0160208091040260200160405190810160405280929190818152602001828054610f2390611a2e565b8015610f705780601f10610f4557610100808354040283529160200191610f70565b820191906000526020600020905b815481529060010190602001808311610f5357829003601f168201915b50505050508152602001600282018054610f8990611a2e565b80601f0160208091040260200160405190810160405280929190818152602001828054610fb590611a2e565b80156110025780601f10610fd757610100808354040283529160200191611002565b820191906000526020600020905b815481529060010190602001808311610fe557829003601f168201915b505050505081525050905084565b60015481565b600080600087815260200190815260200160002090508581600001819055506040518060800160405280868152602001858152602001848152602001838152508160010160008201518160000190805190602001906110769291906110de565b5060208201518160010155604082015181600201908051906020019061109d9291906110de565b5060608201518160030190805190602001906110ba9291906110de565b50905050600160008154809291906110d190611a60565b9190505550505050505050565b8280546110ea90611a2e565b90600052602060002090601f01602090048101928261110c5760008555611153565b82601f1061112557805160ff1916838001178555611153565b82800160010185558215611153579182015b82811115611152578251825591602001919060010190611137565b5b509050611160919061119e565b5090565b60405180608001604052806000815260200161117e6111bb565b815260200161118b6111e3565b8152602001611198611212565b81525090565b5b808211156111b757600081600090555060010161119f565b5090565b6040518060800160405280606081526020016000815260200160608152602001606081525090565b6040518060a0016040528060608152602001606081526020016060815260200160608152602001606081525090565b60405180606001604052806060815260200160608152602001606081525090565b600061124661124184611996565b611965565b90508281526020810184848401111561125e57600080fd5b6112698482856119ec565b509392505050565b600082601f83011261128257600080fd5b8135611292848260208601611233565b91505092915050565b6000813590506112aa81611b47565b92915050565b6000602082840312156112c257600080fd5b60006112d08482850161129b565b91505092915050565b600080600080608085870312156112ef57600080fd5b60006112fd8782880161129b565b945050602085013567ffffffffffffffff81111561131a57600080fd5b61132687828801611271565b935050604085013567ffffffffffffffff81111561134357600080fd5b61134f87828801611271565b925050606085013567ffffffffffffffff81111561136c57600080fd5b61137887828801611271565b91505092959194509250565b60008060008060008060c0878903121561139d57600080fd5b60006113ab89828a0161129b565b965050602087013567ffffffffffffffff8111156113c857600080fd5b6113d489828a01611271565b955050604087013567ffffffffffffffff8111156113f157600080fd5b6113fd89828a01611271565b945050606087013567ffffffffffffffff81111561141a57600080fd5b61142689828a01611271565b935050608087013567ffffffffffffffff81111561144357600080fd5b61144f89828a01611271565b92505060a087013567ffffffffffffffff81111561146c57600080fd5b61147889828a01611271565b9150509295509295509295565b600080600080600060a0868803121561149d57600080fd5b60006114ab8882890161129b565b955050602086013567ffffffffffffffff8111156114c857600080fd5b6114d488828901611271565b94505060406114e58882890161129b565b935050606086013567ffffffffffffffff81111561150257600080fd5b61150e88828901611271565b925050608086013567ffffffffffffffff81111561152b57600080fd5b61153788828901611271565b9150509295509295909350565b600061154f826119c6565b61155981856119d1565b93506115698185602086016119fb565b61157281611b36565b840191505092915050565b6000606083016000830151848203600086015261159a8282611544565b915050602083015184820360208601526115b48282611544565b915050604083015184820360408601526115ce8282611544565b9150508091505092915050565b600060608301600083015184820360008601526115f88282611544565b915050602083015184820360208601526116128282611544565b9150506040830151848203604086015261162c8282611544565b9150508091505092915050565b600060808301600083015184820360008601526116568282611544565b915050602083015161166b60208601826118b0565b50604083015184820360408601526116838282611544565b9150506060830151848203606086015261169d8282611544565b9150508091505092915050565b600060808301600083015184820360008601526116c78282611544565b91505060208301516116dc60208601826118b0565b50604083015184820360408601526116f48282611544565b9150506060830151848203606086015261170e8282611544565b9150508091505092915050565b600060a08301600083015184820360008601526117388282611544565b915050602083015184820360208601526117528282611544565b9150506040830151848203604086015261176c8282611544565b915050606083015184820360608601526117868282611544565b915050608083015184820360808601526117a08282611544565b9150508091505092915050565b600060a08301600083015184820360008601526117ca8282611544565b915050602083015184820360208601526117e48282611544565b915050604083015184820360408601526117fe8282611544565b915050606083015184820360608601526118188282611544565b915050608083015184820360808601526118328282611544565b9150508091505092915050565b600060808301600083015161185760008601826118b0565b506020830151848203602086015261186f8282611639565b91505060408301518482036040860152611889828261171b565b915050606083015184820360608601526118a3828261157d565b9150508091505092915050565b6118b9816119e2565b82525050565b6118c8816119e2565b82525050565b600060208201905081810360008301526118e8818461183f565b905092915050565b600060208201905061190560008301846118bf565b92915050565b600060808201905061192060008301876118bf565b818103602083015261193281866116aa565b9050818103604083015261194681856117ad565b9050818103606083015261195a81846115db565b905095945050505050565b6000604051905081810181811067ffffffffffffffff8211171561198c5761198b611b07565b5b8060405250919050565b600067ffffffffffffffff8211156119b1576119b0611b07565b5b601f19601f8301169050602081019050919050565b600081519050919050565b600082825260208201905092915050565b6000819050919050565b82818337600083830152505050565b60005b83811015611a195780820151818401526020810190506119fe565b83811115611a28576000848401525b50505050565b60006002820490506001821680611a4657607f821691505b60208210811415611a5a57611a59611ad8565b5b50919050565b6000611a6b826119e2565b91507fffffffffffffffffffffffffffffffffffffffffffffffffffffffffffffffff821415611a9e57611a9d611aa9565b5b600182019050919050565b7f4e487b7100000000000000000000000000000000000000000000000000000000600052601160045260246000fd5b7f4e487b7100000000000000000000000000000000000000000000000000000000600052602260045260246000fd5b7f4e487b7100000000000000000000000000000000000000000000000000000000600052604160045260246000fd5b6000601f19601f8301169050919050565b611b50816119e2565b8114611b5b57600080fd5b5056fea2646970667358221220b9e796398a155349516dc43cdbc0c1d8800bc83214d5453d4681f245880cc0df64736f6c63430008000033",
  "immutableReferences": {},
  "source": "// SPDX-License-Identifier: MIT\r\npragma solidity ^0.8.0;\r\n\r\ncontract PatientData {\r\n    struct BasicInfo {\r\n        string name;\r\n        uint age;\r\n        string gender;\r\n        string bloodGroup;\r\n    }\r\n\r\n    struct MedicalInfo {\r\n        string condition;\r\n        string medications;\r\n        string lastCheckupDate;\r\n        string bmi;\r\n        string location;\r\n    }\r\n\r\n    struct AdditionalInfo {\r\n        string note;\r\n        string history;\r\n        string filename;\r\n    }\r\n\r\n    struct Patient {\r\n        uint id;\r\n        BasicInfo basicInfo;\r\n        MedicalInfo medicalInfo;\r\n        AdditionalInfo additionalInfo;\r\n    }\r\n\r\n    mapping(uint => Patient) public patients;\r\n    uint public patientCount;\r\n\r\n    // Function to add patient basic info\r\n    function addBasicInfo(\r\n        uint _id,\r\n        string memory _name,\r\n        uint _age,\r\n        string memory _gender,\r\n        string memory _bloodGroup\r\n    ) public {\r\n        Patient storage patient = patients[_id];\r\n        patient.id = _id;\r\n        patient.basicInfo = BasicInfo(_name, _age, _gender, _bloodGroup);\r\n        patientCount++;\r\n    }\r\n\r\n    // Function to add medical info\r\n    function addMedicalInfo(\r\n        uint _id,\r\n        string memory _condition,\r\n        string memory _medications,\r\n        string memory _lastCheckupDate,\r\n        string memory _bmi,\r\n        string memory _location\r\n    ) public {\r\n        Patient storage patient = patients[_id];\r\n        patient.medicalInfo = MedicalInfo(_condition, _medications, _lastCheckupDate, _bmi, _location);\r\n    }\r\n\r\n    // Function to add additional info\r\n    function addAdditionalInfo(\r\n        uint _id,\r\n        string memory _note,\r\n        string memory _history,\r\n        string memory _filename\r\n    ) public {\r\n        Patient storage patient = patients[_id];\r\n        patient.additionalInfo = AdditionalInfo(_note, _history, _filename);\r\n    }\r\n\r\n    // Function to retrieve patient data\r\n    function getPatient(uint _id) public view returns (Patient memory) {\r\n        return patients[_id];\r\n    }\r\n}\r\n",
  "sourcePath": "C:\\Users\\manib\\Desktop\\truffle\\contracts\\PatientData.sol",
  "compiler": {
    "name": "solc",
    "version": "0.8.0+commit.c7dfd78e.Emscripten.clang"
  },
  "schemaVersion": "3.4.16",
  "updatedAt": "2024-10-20T04:38:08.821Z",
  "networkType": "ethereum",
  "devdoc": {
    "kind": "dev",
    "methods": {},
    "version": 1
  },
  "userdoc": {
    "kind": "user",
    "methods": {},
    "version": 1
  }
}