{
  "contractName": "PatientData",
  "abi": [
    {
      "anonymous": false,
      "inputs": [
        {
          "indexed": false,
          "internalType": "uint256",
          "name": "id",
          "type": "uint256"
        },
        {
          "indexed": false,
          "internalType": "string",
          "name": "name",
          "type": "string"
        }
      ],
      "name": "PatientAdded",
      "type": "event"
    },
    {
      "inputs": [],
      "name": "patientCount",
      "outputs": [
        {
          "internalType": "uint256",
          "name": "",
          "type": "uint256"
        }
      ],
      "stateMutability": "view",
      "type": "function",
      "constant": true
    },
    {
      "inputs": [
        {
          "internalType": "uint256",
          "name": "",
          "type": "uint256"
        }
      ],
      "name": "patients",
      "outputs": [
        {
          "internalType": "uint256",
          "name": "id",
          "type": "uint256"
        },
        {
          "internalType": "string",
          "name": "name",
          "type": "string"
        },
        {
          "internalType": "string",
          "name": "dob",
          "type": "string"
        },
        {
          "internalType": "uint8",
          "name": "age",
          "type": "uint8"
        },
        {
          "internalType": "string",
          "name": "gender",
          "type": "string"
        },
        {
          "internalType": "string",
          "name": "medicalCondition",
          "type": "string"
        },
        {
          "internalType": "string",
          "name": "bloodType",
          "type": "string"
        },
        {
          "internalType": "string",
          "name": "medicalHistory",
          "type": "string"
        },
        {
          "internalType": "string",
          "name": "medication",
          "type": "string"
        },
        {
          "internalType": "string",
          "name": "lastCheckupDate",
          "type": "string"
        },
        {
          "internalType": "string",
          "name": "notes",
          "type": "string"
        }
      ],
      "stateMutability": "view",
      "type": "function",
      "constant": true
    },
    {
      "inputs": [
        {
          "internalType": "string[]",
          "name": "_names",
          "type": "string[]"
        },
        {
          "internalType": "string[]",
          "name": "_dobs",
          "type": "string[]"
        },
        {
          "internalType": "uint8[]",
          "name": "_ages",
          "type": "uint8[]"
        },
        {
          "internalType": "string[]",
          "name": "_genders",
          "type": "string[]"
        },
        {
          "internalType": "string[]",
          "name": "_medicalConditions",
          "type": "string[]"
        },
        {
          "internalType": "string[]",
          "name": "_bloodTypes",
          "type": "string[]"
        },
        {
          "internalType": "string[]",
          "name": "_medicalHistories",
          "type": "string[]"
        },
        {
          "internalType": "string[]",
          "name": "_medications",
          "type": "string[]"
        },
        {
          "internalType": "string[]",
          "name": "_lastCheckupDates",
          "type": "string[]"
        },
        {
          "internalType": "string[]",
          "name": "_notes",
          "type": "string[]"
        }
      ],
      "name": "addPatients",
      "outputs": [],
      "stateMutability": "nonpayable",
      "type": "function"
    },
    {
      "inputs": [
        {
          "internalType": "uint256",
          "name": "_id",
          "type": "uint256"
        }
      ],
      "name": "getPatient",
      "outputs": [
        {
          "internalType": "uint256",
          "name": "id",
          "type": "uint256"
        },
        {
          "internalType": "string",
          "name": "name",
          "type": "string"
        },
        {
          "internalType": "string",
          "name": "dob",
          "type": "string"
        },
        {
          "internalType": "uint8",
          "name": "age",
          "type": "uint8"
        },
        {
          "internalType": "string",
          "name": "gender",
          "type": "string"
        },
        {
          "internalType": "string",
          "name": "medicalCondition",
          "type": "string"
        },
        {
          "internalType": "string",
          "name": "bloodType",
          "type": "string"
        },
        {
          "internalType": "string",
          "name": "medicalHistory",
          "type": "string"
        },
        {
          "internalType": "string",
          "name": "medication",
          "type": "string"
        },
        {
          "internalType": "string",
          "name": "lastCheckupDate",
          "type": "string"
        },
        {
          "internalType": "string",
          "name": "notes",
          "type": "string"
        }
      ],
      "stateMutability": "view",
      "type": "function",
      "constant": true
    }
  ],
  "bytecode": "0x608060405234801561001057600080fd5b50611b4b806100206000396000f3fe608060405234801561001057600080fd5b506004361061004c5760003560e01c80637d3a67961461005157806393119a831461008b578063a0303c41146100c5578063e2c00475146100e3575b600080fd5b61006b60048036038101906100669190611605565b6100ff565b6040516100829b9a999897969594939291906117b6565b60405180910390f35b6100a560048036038101906100a09190611605565b61072d565b6040516100bc9b9a999897969594939291906117b6565b60405180910390f35b6100cd610c5c565b6040516100da919061176b565b60405180910390f35b6100fd60048036038101906100f8919061143a565b610c62565b005b60006060806000606080606080606080606060008c11801561012357506001548c11155b610162576040517f08c379a00000000000000000000000000000000000000000000000000000000081526004016101599061172b565b60405180910390fd5b60008060008e8152602001908152602001600020604051806101600160405290816000820154815260200160018201805461019c906119ce565b80601f01602080910402602001604051908101604052809291908181526020018280546101c8906119ce565b80156102155780601f106101ea57610100808354040283529160200191610215565b820191906000526020600020905b8154815290600101906020018083116101f857829003601f168201915b5050505050815260200160028201805461022e906119ce565b80601f016020809104026020016040519081016040528092919081815260200182805461025a906119ce565b80156102a75780601f1061027c576101008083540402835291602001916102a7565b820191906000526020600020905b81548152906001019060200180831161028a57829003601f168201915b505050505081526020016003820160009054906101000a900460ff1660ff1660ff1681526020016004820180546102dd906119ce565b80601f0160208091040260200160405190810160405280929190818152602001828054610309906119ce565b80156103565780601f1061032b57610100808354040283529160200191610356565b820191906000526020600020905b81548152906001019060200180831161033957829003601f168201915b5050505050815260200160058201805461036f906119ce565b80601f016020809104026020016040519081016040528092919081815260200182805461039b906119ce565b80156103e85780601f106103bd576101008083540402835291602001916103e8565b820191906000526020600020905b8154815290600101906020018083116103cb57829003601f168201915b50505050508152602001600682018054610401906119ce565b80601f016020809104026020016040519081016040528092919081815260200182805461042d906119ce565b801561047a5780601f1061044f5761010080835404028352916020019161047a565b820191906000526020600020905b81548152906001019060200180831161045d57829003601f168201915b50505050508152602001600782018054610493906119ce565b80601f01602080910402602001604051908101604052809291908181526020018280546104bf906119ce565b801561050c5780601f106104e15761010080835404028352916020019161050c565b820191906000526020600020905b8154815290600101906020018083116104ef57829003601f168201915b50505050508152602001600882018054610525906119ce565b80601f0160208091040260200160405190810160405280929190818152602001828054610551906119ce565b801561059e5780601f106105735761010080835404028352916020019161059e565b820191906000526020600020905b81548152906001019060200180831161058157829003601f168201915b505050505081526020016009820180546105b7906119ce565b80601f01602080910402602001604051908101604052809291908181526020018280546105e3906119ce565b80156106305780601f1061060557610100808354040283529160200191610630565b820191906000526020600020905b81548152906001019060200180831161061357829003601f168201915b50505050508152602001600a82018054610649906119ce565b80601f0160208091040260200160405190810160405280929190818152602001828054610675906119ce565b80156106c25780601f10610697576101008083540402835291602001916106c2565b820191906000526020600020905b8154815290600101906020018083116106a557829003601f168201915b5050505050815250509050806000015181602001518260400151836060015184608001518560a001518660c001518760e001518861010001518961012001518a61014001519b509b509b509b509b509b509b509b509b509b509b505091939597999b90929496989a50565b6000602052806000526040600020600091509050806000015490806001018054610756906119ce565b80601f0160208091040260200160405190810160405280929190818152602001828054610782906119ce565b80156107cf5780601f106107a4576101008083540402835291602001916107cf565b820191906000526020600020905b8154815290600101906020018083116107b257829003601f168201915b5050505050908060020180546107e4906119ce565b80601f0160208091040260200160405190810160405280929190818152602001828054610810906119ce565b801561085d5780601f106108325761010080835404028352916020019161085d565b820191906000526020600020905b81548152906001019060200180831161084057829003601f168201915b5050505050908060030160009054906101000a900460ff1690806004018054610885906119ce565b80601f01602080910402602001604051908101604052809291908181526020018280546108b1906119ce565b80156108fe5780601f106108d3576101008083540402835291602001916108fe565b820191906000526020600020905b8154815290600101906020018083116108e157829003601f168201915b505050505090806005018054610913906119ce565b80601f016020809104026020016040519081016040528092919081815260200182805461093f906119ce565b801561098c5780601f106109615761010080835404028352916020019161098c565b820191906000526020600020905b81548152906001019060200180831161096f57829003601f168201915b5050505050908060060180546109a1906119ce565b80601f01602080910402602001604051908101604052809291908181526020018280546109cd906119ce565b8015610a1a5780601f106109ef57610100808354040283529160200191610a1a565b820191906000526020600020905b8154815290600101906020018083116109fd57829003601f168201915b505050505090806007018054610a2f906119ce565b80601f0160208091040260200160405190810160405280929190818152602001828054610a5b906119ce565b8015610aa85780601f10610a7d57610100808354040283529160200191610aa8565b820191906000526020600020905b815481529060010190602001808311610a8b57829003601f168201915b505050505090806008018054610abd906119ce565b80601f0160208091040260200160405190810160405280929190818152602001828054610ae9906119ce565b8015610b365780601f10610b0b57610100808354040283529160200191610b36565b820191906000526020600020905b815481529060010190602001808311610b1957829003601f168201915b505050505090806009018054610b4b906119ce565b80601f0160208091040260200160405190810160405280929190818152602001828054610b77906119ce565b8015610bc45780601f10610b9957610100808354040283529160200191610bc4565b820191906000526020600020905b815481529060010190602001808311610ba757829003601f168201915b50505050509080600a018054610bd9906119ce565b80601f0160208091040260200160405190810160405280929190818152602001828054610c05906119ce565b8015610c525780601f10610c2757610100808354040283529160200191610c52565b820191906000526020600020905b815481529060010190602001808311610c3557829003601f168201915b505050505090508b565b60015481565b88518a51148015610c74575087518951145b8015610c81575086518851145b8015610c8e575085518751145b8015610c9b575084518651145b8015610ca8575083518551145b8015610cb5575082518451145b8015610cc2575081518351145b8015610ccf575080518251145b610d0e576040517f08c379a0000000000000000000000000000000000000000000000000000000008152600401610d059061174b565b60405180910390fd5b60005b8a518110156111db5760016000815480929190610d2d90611a00565b919050555060405180610160016040528060015481526020018c8381518110610d7f577f4e487b7100000000000000000000000000000000000000000000000000000000600052603260045260246000fd5b602002602001015181526020018b8381518110610dc5577f4e487b7100000000000000000000000000000000000000000000000000000000600052603260045260246000fd5b602002602001015181526020018a8381518110610e0b577f4e487b7100000000000000000000000000000000000000000000000000000000600052603260045260246000fd5b602002602001015160ff168152602001898381518110610e54577f4e487b7100000000000000000000000000000000000000000000000000000000600052603260045260246000fd5b60200260200101518152602001888381518110610e9a577f4e487b7100000000000000000000000000000000000000000000000000000000600052603260045260246000fd5b60200260200101518152602001878381518110610ee0577f4e487b7100000000000000000000000000000000000000000000000000000000600052603260045260246000fd5b60200260200101518152602001868381518110610f26577f4e487b7100000000000000000000000000000000000000000000000000000000600052603260045260246000fd5b60200260200101518152602001858381518110610f6c577f4e487b7100000000000000000000000000000000000000000000000000000000600052603260045260246000fd5b60200260200101518152602001848381518110610fb2577f4e487b7100000000000000000000000000000000000000000000000000000000600052603260045260246000fd5b60200260200101518152602001838381518110610ff8577f4e487b7100000000000000000000000000000000000000000000000000000000600052603260045260246000fd5b6020026020010151815250600080600154815260200190815260200160002060008201518160000155602082015181600101908051906020019061103d9291906111e8565b50604082015181600201908051906020019061105a9291906111e8565b5060608201518160030160006101000a81548160ff021916908360ff16021790555060808201518160040190805190602001906110989291906111e8565b5060a08201518160050190805190602001906110b59291906111e8565b5060c08201518160060190805190602001906110d29291906111e8565b5060e08201518160070190805190602001906110ef9291906111e8565b5061010082015181600801908051906020019061110d9291906111e8565b5061012082015181600901908051906020019061112b9291906111e8565b5061014082015181600a0190805190602001906111499291906111e8565b509050507f6b905965000bb5754f6810e4d8a383a339c59b8ffe0680d4e1af63aca2da21556001548c83815181106111aa577f4e487b7100000000000000000000000000000000000000000000000000000000600052603260045260246000fd5b60200260200101516040516111c0929190611786565b60405180910390a180806111d390611a00565b915050610d11565b5050505050505050505050565b8280546111f4906119ce565b90600052602060002090601f016020900481019282611216576000855561125d565b82601f1061122f57805160ff191683800117855561125d565b8280016001018555821561125d579182015b8281111561125c578251825591602001919060010190611241565b5b50905061126a919061126e565b5090565b5b8082111561128757600081600090555060010161126f565b5090565b600061129e611299846118d1565b6118a0565b9050808382526020820190508260005b858110156112de57813585016112c488826113e6565b8452602084019350602083019250506001810190506112ae565b5050509392505050565b60006112fb6112f6846118fd565b6118a0565b9050808382526020820190508285602086028201111561131a57600080fd5b60005b8581101561134a57816113308882611425565b84526020840193506020830192505060018101905061131d565b5050509392505050565b600061136761136284611929565b6118a0565b90508281526020810184848401111561137f57600080fd5b61138a84828561198c565b509392505050565b600082601f8301126113a357600080fd5b81356113b384826020860161128b565b91505092915050565b600082601f8301126113cd57600080fd5b81356113dd8482602086016112e8565b91505092915050565b600082601f8301126113f757600080fd5b8135611407848260208601611354565b91505092915050565b60008135905061141f81611ae7565b92915050565b60008135905061143481611afe565b92915050565b6000806000806000806000806000806101408b8d03121561145a57600080fd5b60008b013567ffffffffffffffff81111561147457600080fd5b6114808d828e01611392565b9a505060208b013567ffffffffffffffff81111561149d57600080fd5b6114a98d828e01611392565b99505060408b013567ffffffffffffffff8111156114c657600080fd5b6114d28d828e016113bc565b98505060608b013567ffffffffffffffff8111156114ef57600080fd5b6114fb8d828e01611392565b97505060808b013567ffffffffffffffff81111561151857600080fd5b6115248d828e01611392565b96505060a08b013567ffffffffffffffff81111561154157600080fd5b61154d8d828e01611392565b95505060c08b013567ffffffffffffffff81111561156a57600080fd5b6115768d828e01611392565b94505060e08b013567ffffffffffffffff81111561159357600080fd5b61159f8d828e01611392565b9350506101008b013567ffffffffffffffff8111156115bd57600080fd5b6115c98d828e01611392565b9250506101208b013567ffffffffffffffff8111156115e757600080fd5b6115f38d828e01611392565b9150509295989b9194979a5092959850565b60006020828403121561161757600080fd5b600061162584828501611410565b91505092915050565b600061163982611959565b6116438185611964565b935061165381856020860161199b565b61165c81611ad6565b840191505092915050565b6000611674601783611964565b91507f50617469656e7420646f6573206e6f742065786973742e0000000000000000006000830152602082019050919050565b60006116b4602b83611964565b91507f416c6c20696e70757420617272617973206d757374206861766520746865207360008301527f616d65206c656e6774682e0000000000000000000000000000000000000000006020830152604082019050919050565b61171681611975565b82525050565b6117258161197f565b82525050565b6000602082019050818103600083015261174481611667565b9050919050565b60006020820190508181036000830152611764816116a7565b9050919050565b6000602082019050611780600083018461170d565b92915050565b600060408201905061179b600083018561170d565b81810360208301526117ad818461162e565b90509392505050565b6000610160820190506117cc600083018e61170d565b81810360208301526117de818d61162e565b905081810360408301526117f2818c61162e565b9050611801606083018b61171c565b8181036080830152611813818a61162e565b905081810360a0830152611827818961162e565b905081810360c083015261183b818861162e565b905081810360e083015261184f818761162e565b9050818103610100830152611864818661162e565b9050818103610120830152611879818561162e565b905081810361014083015261188e818461162e565b90509c9b505050505050505050505050565b6000604051905081810181811067ffffffffffffffff821117156118c7576118c6611aa7565b5b8060405250919050565b600067ffffffffffffffff8211156118ec576118eb611aa7565b5b602082029050602081019050919050565b600067ffffffffffffffff82111561191857611917611aa7565b5b602082029050602081019050919050565b600067ffffffffffffffff82111561194457611943611aa7565b5b601f19601f8301169050602081019050919050565b600081519050919050565b600082825260208201905092915050565b6000819050919050565b600060ff82169050919050565b82818337600083830152505050565b60005b838110156119b957808201518184015260208101905061199e565b838111156119c8576000848401525b50505050565b600060028204905060018216806119e657607f821691505b602082108114156119fa576119f9611a78565b5b50919050565b6000611a0b82611975565b91507fffffffffffffffffffffffffffffffffffffffffffffffffffffffffffffffff821415611a3e57611a3d611a49565b5b600182019050919050565b7f4e487b7100000000000000000000000000000000000000000000000000000000600052601160045260246000fd5b7f4e487b7100000000000000000000000000000000000000000000000000000000600052602260045260246000fd5b7f4e487b7100000000000000000000000000000000000000000000000000000000600052604160045260246000fd5b6000601f19601f8301169050919050565b611af081611975565b8114611afb57600080fd5b50565b611b078161197f565b8114611b1257600080fd5b5056fea26469706673582212209325f66cd77835a50a06a0f60bf4a24642fddaad9d224c448fd6ef62f2048be364736f6c63430008000033",
  "immutableReferences": {},
  "source": "// SPDX-License-Identifier: MIT\r\npragma solidity ^0.8.0;\r\n\r\ncontract PatientData {\r\n    struct Patient {\r\n        uint256 id;\r\n        string name;\r\n        string dob;\r\n        uint8 age;\r\n        string gender;\r\n        string medicalCondition;\r\n        string bloodType;\r\n        string medicalHistory;\r\n        string medication;\r\n        string lastCheckupDate;\r\n        string notes;\r\n    }\r\n\r\n    mapping(uint256 => Patient) public patients;\r\n    uint256 public patientCount;\r\n\r\n    event PatientAdded(uint256 id, string name);\r\n\r\n    // Function to add multiple patients at once\r\n    function addPatients(\r\n        string[] memory _names,\r\n        string[] memory _dobs,\r\n        uint8[] memory _ages,\r\n        string[] memory _genders,\r\n        string[] memory _medicalConditions,\r\n        string[] memory _bloodTypes,\r\n        string[] memory _medicalHistories,\r\n        string[] memory _medications,\r\n        string[] memory _lastCheckupDates,\r\n        string[] memory _notes\r\n    ) public {\r\n        require(\r\n            _names.length == _dobs.length &&\r\n                _dobs.length == _ages.length &&\r\n                _ages.length == _genders.length &&\r\n                _genders.length == _medicalConditions.length &&\r\n                _medicalConditions.length == _bloodTypes.length &&\r\n                _bloodTypes.length == _medicalHistories.length &&\r\n                _medicalHistories.length == _medications.length &&\r\n                _medications.length == _lastCheckupDates.length &&\r\n                _lastCheckupDates.length == _notes.length,\r\n            \"All input arrays must have the same length.\"\r\n        );\r\n\r\n        for (uint256 i = 0; i < _names.length; i++) {\r\n            patientCount++;\r\n            patients[patientCount] = Patient(\r\n                patientCount,\r\n                _names[i],\r\n                _dobs[i],\r\n                _ages[i],\r\n                _genders[i],\r\n                _medicalConditions[i],\r\n                _bloodTypes[i],\r\n                _medicalHistories[i],\r\n                _medications[i],\r\n                _lastCheckupDates[i],\r\n                _notes[i]\r\n            );\r\n            emit PatientAdded(patientCount, _names[i]);\r\n        }\r\n    }\r\n\r\n    // Function to retrieve a single patient's details by ID\r\n    function getPatient(\r\n        uint256 _id\r\n    )\r\n        public\r\n        view\r\n        returns (\r\n            uint256 id,\r\n            string memory name,\r\n            string memory dob,\r\n            uint8 age,\r\n            string memory gender,\r\n            string memory medicalCondition,\r\n            string memory bloodType,\r\n            string memory medicalHistory,\r\n            string memory medication,\r\n            string memory lastCheckupDate,\r\n            string memory notes\r\n        )\r\n    {\r\n        require(_id > 0 && _id <= patientCount, \"Patient does not exist.\");\r\n\r\n        Patient memory patient = patients[_id];\r\n        return (\r\n            patient.id,\r\n            patient.name,\r\n            patient.dob,\r\n            patient.age,\r\n            patient.gender,\r\n            patient.medicalCondition,\r\n            patient.bloodType,\r\n            patient.medicalHistory,\r\n            patient.medication,\r\n            patient.lastCheckupDate,\r\n            patient.notes\r\n        );\r\n    }\r\n}\r\n",
  "sourcePath": "C:\\Users\\NS Shashank\\truffle\\contracts\\PatientData.sol",
  "compiler": {
    "name": "solc",
    "version": "0.8.0+commit.c7dfd78e.Emscripten.clang"
  },
  "schemaVersion": "3.4.16",
  "updatedAt": "2024-10-20T17:44:02.088Z",
  "networkType": "ethereum",
  "devdoc": {
    "kind": "dev",
    "methods": {},
    "version": 1
  },
  "userdoc": {
    "kind": "user",
    "methods": {},
    "version": 1
  }
}